:1000000000FC032091680200D55A0200D55A020074
:10001000D55A0200D55A0200D55A0200D55A02001C
:10002000D55A0200D55A0200D55A0200D55A02000C
:0C003000D55A0200D55A02008B0C0100CA
:10003C002DE9F04F99B0054680780224532800F240
:10004C004785DFE810F054009900A800B800C800FC
:10005C00D900E8000A0119014505280136015701AC
:10006C004505450545054505450545054505450534
:10007C004505450545054505450545054505450524
:10008C004505450545056301860192014505450574
:10009C0045059E01B501D1010402450545054505FF
:1000AC004505450545052A02400256026C028202AE
:1000BC009702A802C90245054505450545054505B4
:1000CC004505FE02120326034505330340035E0378
:1000DC00670373037F038E039803BC03D903FE03EA
:1000EC00060418042504310455045C045F04EC1C5C
:1000FC00E97A2A7B002320461FF05AF98DF8180064
:10010C0006AB65200021012223F0A8FEDFF8CC0904
:10011C000078012800F2DB8420462BF029FD002812
:10012C0000F0D58405460079012840F0D0842BF0EE
:10013C0097FA00274FF400018DF84B008DF844001E
:10014C00000ACDF846108DF84D708DF84A708DF878
:10015C004C008DF8450011AE214606F10A002BF03B
:10016C0085FD2978152233460170697887704170B6
:10017C004520FF2100F0A9BC2BF027FD6979AA7955
:10018C000023002426F016FF8DF8440011AB6520E7
:10019C00012100F020BC2BF0B1FA2BF009FC014638
:1001AC0011A802222BF0ACFC8DF8180006AB6520D0
:1001BC00022100F010BC2BF0A1FA2BF0F9FB014648
:1001CC0011A803222BF09CFC8DF8180006AB6520BF
:1001DC00032100F000BC2BF091FA2BF0E9FBEA793B
:1001EC00014611A80023002428F0B4FE8DF8180055
:1001FC0006AB65200421EEE32BF080FA2BF0D8FB44
:10020C00014611A805222BF07BFC8DF8180006ABDB
:10021C0065200521DFE30020DFF8E4482BF04FF9DF
:10022C00ADF83800681DA0478046E81DA04795F83A
:10023C0009B0824605F10A07BBF1100F00F27D836D
:10024C0011AC5E46002E00F07B8338462BF061FD2E
:10025C0024F8020B013E0237F4E72BF04FFA2BF097
:10026C00A7FB014611A810222BF04AFC8DF81800B0
:10027C0006AB65200721AEE32BF040FA2BF098FB80
:10028C00014611A811222BF03BFC8DF8180006AB8F
:10029C00652008219FE32BF098FC6A7B691D0023E5
:1002AC00002425F0FDF98DF8440011AB65200A21DE
:1002BC0091E302208DF820002BF087FCADF818009C
:1002CC00681D2BF026FDEA79064605F108018DF82C
:1002DC00442011AF781C2AF0A9FF06A831463A46F3
:1002EC000023002421F060FF8DF838000EAB652050
:1002FC000B2170E32BF069FC0021002424F022FC7C
:10030C008DF8440011AB65200C2164E30020DFF86C
:10031C00F0472BF0D4F8ADF83800681DA0478046A4
:10032C0095F80F9005F11000A04705F11304AD7C72
:10033C0083460F2D00F2168311AE2F46002F00F0CE
:10034C00148320462BF0E5FC26F8020B013F023407
:10035C00F4E72BF0D3F92BF0B9F82AF057FF40F063
:10036C00158306A82BF082FC15E32BF0C7F92BF0B4
:10037C00ADF82AF04BFF40F01C8306A82BF076FC5E
:10038C001CE3E81C042127F0ADFEE9792BF0E9FC15
:10039C00DFF864178DF8440002202AF09DFCDFF88A
:1003AC005C1703202AF098FC11AB652026218BE307
:1003BC002BF008FC044605F10E002BF0AAFC297C5E
:1003CC006A7C0346E878CDE90012AA1D214627F085
:1003DC0071FBDFF820178DF8440004202AF07CFC18
:1003EC0011AB652027216FE34FF00208E81C8DF854
:1003FC004C802BF08EFCADF8440068798DF83800F9
:10040C00A81D2BF086FC2E7A044600270935CDE971
:10041C0000570EA811A92246334622F0FBFC2BF004
:10042C007FF910D1DFF8B0068DF84C80CDE900577C
:10043C0022463346C08AADF844000EA811A922F01A
:10044C00E9FC8DF8180006AB652028213CE3022658
:10045C00E81C8DF84C602BF05CFC2BF0A9FAED79C4
:10046C00044611A8002321462A4629F007FE2BF04A
:10047C0057F90ED1DFF860068DF84C6021462A46FC
:10048C000023C08AADF8440011A829F0F7FD8DF8BF
:10049C00180006AB6520292116E32BF02FF9ADF8D7
:1004AC004400681D042127F01DFE6A7AAB7A0024F3
:1004BC000146009411A827F029FB8DF8180006AB13
:1004CC006520302187E22BF019F92BF05DFA3122EF
:1004DC0001238DF838000EA8CDE90004DFF81006D2
:1004EC0011A922F097FC8DF8180006AB652031217C
:1004FC0071E22BF003F92BF047FA322201238DF82D
:10050C0038000EA8CDE90004DFF8E40511A922F0AB
:10051C0081FC8DF8180006AB652032215BE22BF0D4
:10052C00EDF82BF031FA332201238DF838000EA8A8
:10053C00CDE90004DFF8B80511A922F06BFC8DF8A9
:10054C00180006AB6520332145E22BF0D7F8ADF847
:10055C004400687B0024691D0094C0F3400200F045
:10056C00010311A824F0D0FA8DF8180006AB652011
:10057C00342130E22BF0C2F86A7BADF84400691DDF
:10058C0011A80023002428F03BF88DF8180006ABC6
:10059C00652035211FE22C4614F8030B04281ABFE2
:1005AC00E8782C1D02208DF84C0020462BF0B1FB76
:1005BC00DFF838550121E278ADF8440000232970AA
:1005CC00A17811A8002420F0DBF88DF818002C700D
:1005DC0006AB65203621FEE12BF0F7FAADF84400AE
:1005EC00687904218DF84C00A81D27F07BFD04468A
:1005FC00AE7AEF7A05F10C002BF08BFBDFF8D88488
:10060C000546214632463B462AF03DFF11A822F012
:10061C00DDFB2BF085F810D10220214632463B46FB
:10062C008DF84C00B8F81600ADF844002AF02BFFFA
:10063C0011A822F0CBFB8DF8180006AB65203721F2
:10064C0042E26C782BF0C1FA0146DFF89C0400788A
:10065C0021F084FD8DF8440004F0E000202840F0E7
:10066C00368211AB65203E212EE26C782BF0ADFA70
:10067C000146DFF87404007823F028F88DF8440064
:10068C0004F0E000202840F0228211AB65203F21CD
:10069C001AE200206C788DF84400DFF840040078F2
:1006AC00411E022980F09B8102209BE12BF08DFAE8
:1006BC00691D05F10D0221F015FB8DF8440011ABFD
:1006CC006520422100E2002006908DF84900CDF80B
:1006DC004500E81C06A928F04FFC8DF8440006984C
:1006EC0050B12AF0FAFE81788DF84710C1788DF858
:1006FC00481000798DF8490011AB65204321062282
:10070C00E3E1E81C2AF0C9F98DF8440011AB65202F
:10071C004421D9E12BF059FA6979AA790DF03AFF05
:10072C008DF8440011AB65204521CDE12BF04DFA3D
:10073C006979AA791BF0B6FB8DF8440011AB6520E2
:10074C004621C1E1EC782BF03DFA0146204624F01D
:10075C00CBFAB0FA80F0472140098DF8440011AB78
:10076C0078E1E87800248DF8444025F025F811ABA9
:10077C00652047212FE1E87811AC214628F032FCA6
:10078C0007468DF8180040000130C6B230462BF0F9
:10079C00C4FA002800F059810770054600209DF826
:1007AC001810814200F0BF8014F8102005EB4003B4
:1007BC005A7004EB4002013052789A70F1E711AC98
:1007CC00132120462AF092FBEE782BF0FBF9014620
:1007DC00304627F065FF002800F03E810021231DE4
:1007EC008DF844102AF079FEC11C827818468DF8D9
:1007FC0047202AF01BFD32E10020EC78CDF85200A6
:10080C00CDF84E00CDF84A00CDF846002BF0DAF9C1
:10081C00AA79ADF844000F2A28BF0F228DF8462084
:10082C0022B111A8E91D03302AF000FD11A92046C0
:10083C0001221DF0CDFF8DF8180006AB65204B2171
:10084C0042E12AF099FA8DF8440011AB65204C2155
:10085C003AE1E87829798DF8441011A9032800F0C1
:10086C001581022800F01881012840F01C815220CB
:10087C0024F0C2F91AE12BF0A8F969790246A81DF7
:10088C001CF029FA8DF8440011AB65204E211BE1B8
:10089C002BF09BF9014668791AF0BAFE8DF84400EA
:1008AC0011AB65204F210FE18B4D0822E88A05F131
:1008BC003901ADF844008A4800788DF84600A88CC0
:1008CC00ADF84700688BADF8490011ACE01D2AF07B
:1008DC00ADFC04F10F0005F11C0108222AF0A6FC66
:1008EC00287E5021182223468DF85B006520ECE011
:1008FC007A480078002800F0B7801220C0E022F07F
:10090C00B1F9E4E000208DF84400E878010606D542
:10091C00714910F07F0018BF012081F8680011ABFD
:10092C0065205321D0E06520492132462B4623F027
:10093C0095FA28462BF0EFF9C9E080208DF843009A
:10094C003E78102E51D80DF11809013734464D461A
:10095C00002C4CD038462BF0DCF925F8020B013C6E
:10096C000237F5E780208DF8430027780F2F53D8F6
:10097C0001340DF1180A3E46002E4FD020462BF0C4
:10098C00C8F92AF8020B013E0234F5E708462BF0B1
:10099C00C0F9ADF81800687E06A92AF03FFC11A931
:1009AC0021201CF0E9FA8DF838000EAB65202121CE
:1009BC0011E008462BF0ADF9ADF81800687E06A9D9
:1009CC002AF02CFC11A922201CF0D6FA8DF8380044
:1009DC000EAB65202221012223F040FA78E000289A
:1009EC0068D1042008F0E6FE67E080200DE0BBF142
:1009FC00100F0CD811A9002052465B468DE842021C
:100A0C0003900EA8414615F085FB8DF843000DF1BF
:100A1C0043036520062157E080200FE00F2D0FD8EF
:100A2C0011A9002002974A465B46CDE9005106A960
:100A3C00CDE903100EA8414615F014FB8DF84300C8
:100A4C000DF14303652020213EE0002049218DF863
:100A5C00180006AB652037E001208DF8440011AB7F
:100A6C0065204A21132230E02BF0AFF8044605F143
:100A7C000D002BF04EF90246691D204627F05CF85C
:100A8C008DF8440011AB652051211DE0522024F05B
:100A9C00B3F81448002104E0522024F0ADF81148BA
:100AAC000121017002E0522029F012FB11AB6520EC
:100ABC004D2109E001208DF8440004F0E0002028CD
:100ACC0005D111AB65204021012223F0C7F9002488
:100ADC00204619B0BDE8F08FD85D0020141300201B
:100AEC00BC130020CC140020A56C00208E14002018
:100AFC007813002055840200F1890200355701005B
:100B0C001FBD02002DE9F04F99B080466FF0070031
:100B1C00DFF8DCA80630ADF852009AF80000022885
:100B2C0014D1DFF8C808007880B9B8F8080010B103
:100B3C001020012101E0302000210AF037FC0020B8
:100B4C008DF81C0007A9522024F056F80DF11C0951
:100B5C0098F80810D8F804004A4610F027FDE8B1C0
:100B6C009DF81E609DF81F409DF82050BDF8267022
:100B7C002AF070FD844211D127F003004FF6F87172
:100B8C0080B288420AD0012D08D8022E06D29AF8DB
:100B9C000000022808D19DF84D0028B1D32017F091
:100BAC0030FB19B0BDE8F08FB8F82400ADF8480060
:100BBC00B8F82E00ADF82A009DF82200D0B1D8F874
:100BCC0004109DF81D209DF83830012029F0F4F90F
:100BDC0008B1CF20E3E7DFF81C08C078012809D161
:100BEC00B8F824002AF05CFF20B1417901F0E7014C
:100BFC00083141719DF8210068B1BDF82610FF2025
:100C0C0027F04EFD9DF82110E0B141F001012C269A
:100C1C008DF8211017E09DF83900002800F0EB80CA
:100C2C009DF83D10FF2902D0002940F02681DFF805
:100C3C00C807BDF82620C18A8A4240F027810120CE
:100C4C00222607E0082601F00300012808BF46F021
:100C5C00110601209AF800104FF6F877012908D8F0
:100C6C003446B20758BF64F07F04002808BF3446EE
:100C7C0000E034469DF82200DFF87C575FFA84FBD5
:100C8C0030B9E87A20B10BF02200222840F08080A5
:100C9C001BF0400004901CD0012903D8A87B8007CE
:100CAC0000F1D880119801780C2900F2DB80012228
:100CBC0041F298438A401A4200F0D480032902D1B1
:100CCC0040780D2805D007A823F0B6FD01283FF485
:100CDC0068AFA88CB8F8401081420AD198F842202D
:100CEC00B8F83E10B8F8240000230093002307F056
:100CFC00A3FB9DF82200F8B1B8F83E10B8F8240018
:100D0C0024F0C4F8002800F08F800646D8F80400C0
:100D1C009DF81D10F2780844417B8A421EBF0022C8
:100D2C007260F1700130042127F0DCF9716888429F
:100D3C00FFF437AF013070609AF80000022834D20B
:100D4C00A87B80077FF52DAF9DF84D004FF6F87608
:100D5C0060B1BDF8280029F0D9FB002800F007810C
:100D6C00D8F80400417801F0DF0141709DF82E00A5
:100D7C00002800F0DF80D8F80400817901398171F6
:100D8C008DF82E1004F07F00090640F0D680D3E0D9
:100D9C000BF0420042287FF41CAF1198007800F051
:100DAC00FE0006287FF415AF72E77FF4FAAE95F8D3
:100DBC002600092802D004287FF4F3AE5FEA8B608A
:100DCC0000F19E80049800283FF4EBAE11989DF83A
:100DDC0038100078042808BF022900F04581072844
:100DEC0008BF042900F009810C2840F04D8107A8A8
:100DFC0015F04CFED5E6BDF8260024F0ADFA02380D
:100E0C00DFF8F415B0FA80F0CA8A4109BDF8260063
:100E1C00904208BF023100293FD09DF81E20002AC5
:100E2C0056D001F1400455E09DF84D00B8B30420B4
:100E3C0027F0CAFF00283FF4B4AE01464FF4B2705D
:100E4C000880B8F824004880DFF8B00500781FF05F
:100E5C0063FBA6E611980178A1F10C0212F10C0FBC
:100E6C003FF62CAFE88ABDF8262082427FF496AE7E
:100E7C00BDF8280025F0D6FE90E6109A9DF83C00AF
:100E8C0022F07AFB30B101200026E3E690F8260030
:100E9C000428F8D100260020DCE600241AE095F89E
:100EAC006C0001287FF448AF11980078062803D114
:100EBC00049800287FF440AFF81DBDF82A1080B2CA
:100ECC0081423FF46EAE07A841461FF0E5FD68E68F
:100EDC0001F1200424F040FA0138B0FA80F0400906
:100EEC0044EA00069DF81E0000283FF4B2AE1198AB
:100EFC00007829F05FFB012818BF04F07E06A8E6F5
:100F0C0098F842002AF09CFA9DF82E00012840F037
:100F1C00B480B8F82400BDF82810814240F0AD80B0
:100F2C00BDF8260024F018FA022804BF00208DF822
:100F3C002E00A2E004F07F000446210702D44FF0FB
:100F4C00000A34E0E1B24A0722D4C9069DF8211008
:100F5C0028D5C1F3820212B1072A18BF013A002A20
:100F6C0008BF044601F0E30040EA820118E0D320F8
:100F7C0017F047F9DFF888040078002800F09F800C
:100F8C00DFF8801451F82000C0EB0010810098E0CD
:100F9C009DF8210000F0E00100F0E30040EAD101EF
:100FAC008DF82110D8F804004FF4805A017295F88E
:100FBC002600092801D0042823D1E98ABDF826008F
:100FCC0088420AD024F0C8F9022806D09DF82100E6
:100FDC0000F0030001287FF4E4AD9DF81E0000280A
:100FEC0047D011989DF838100078042808BF0229C2
:100FFC003AD0072848D1042946D107A818F048FF51
:10100C00CFE5E7B214F0610F46D0F80709D0B8F875
:10101C00241007A8A94616F077F9002864D004F02C
:10102C009F040025E7B2A00609D598F84200D8F82D
:10103C0038202AF005FA07A815A905F0EFF978066B
:10104C0040F12681B8F8241007A80DF152022B4666
:10105C0010F028FB00286FD0054611980078012865
:10106C0008BF4AF0100A13E107A9002011F078FB21
:10107C0097E598F842002AF0E3F9D8F8382007A849
:10108C0015A905F0CBF98CE503287FF48AAD07A8E8
:10109C0000210FF093FE84E59DF81E0001285AD123
:1010AC0011980078032849D0052854D1B8F8241099
:1010BC0007A80DF15202002310F0F4FA71E5D148A3
:1010CC000168D1480268BDF82800904701287FF4D8
:1010DC0068ADCE480168BDF828008847CC48016847
:1010EC00BDF8280088475CE528F052FA9DF82E10D0
:1010FC000546BDF8280019B9B8F82410884291D0DB
:10110C00B9F81610814204D1BA48807800283FF40F
:10111C0089AFB8F8241007A82A4609F031F800283E
:10112C0000F09B8038074AF0040ABDF8260048BF3F
:10113C00F01DADF8520075E70025A9E0BDF82600BA
:10114C0029F0E4F938B1B8F8241007A80DF15202CF
:10115C00002310F0A7FA9DF82E0088B325F0F6FABC
:10116C0000287FF41EAD9DF83900A0B3109A9DF8AD
:10117C003C009DF83D1022F0FFF9002870D09DF83E
:10118C003D00002875D010992AF03AFC9DF82430C7
:10119C00ADF8520011209DF823209DF821104AF043
:1011AC00400A002B08BF0920002A18BF083000296C
:1011BC0018BF0130D8F804100A5C013A0A5462E0F6
:1011CC009DF81E0001287FF47EAE1198007803284C
:1011DC003FF4E7AC77E69DF82010BDF82600002917
:1011EC00ADF8520000F0D3804020BDF8261009F174
:1011FC001D0200EAC4059DF820002B4619F0D2FE12
:10120C0038B1D8F804004AF0200A017801F03F0107
:10121C0001709DF8390048B1BDF8261009F1200085
:10122C0023F0ECFA4AF0400AADF852009DF81E008B
:10123C00012806D0BDF82810BDF82600002215F0B4
:10124C0023FABDF82810BDF826002A4613F08EF8B4
:10125C00002818BF4AF0200A15E004F0DF04E0E68D
:10126C00BDF82610BDF828000B2200231BF088FCCB
:10127C0097E4BDF82600ADF852002AF011FC0028C6
:10128C0008BF4AF0400A28F083F905464FF6F87675
:10129C00B01DBDF8521080B20F1A5E4818BF2F4611
:1012AC000078012805D1F01DB8F82E1080B28142CB
:1012BC002FD160B2B0F1FF3F3FF773AC002F3FF47A
:1012CC0070ACB8F808002AF028FD00283FF469AC8F
:1012DC00B8F80820D8F80410054629F0A7FF9DF8A7
:1012EC001E10002098F80830B8F8242016908DF8BD
:1012FC005410BDF8521015ACCDE9007ACDE90204BA
:10130C00284610F07BFF70B328462AF004FDFFF747
:10131C0048BCB8F824108142CBD0701CBDF82620F4
:10132C0080B28242C5D2BDF828008142C1D02AF0D9
:10133C00B7FB0028BDD0017901390129B9D8408803
:10134C0001218DF85410ADF8600015AD284620F041
:10135C000DF90028ADD0281D1EF0D6FF0028A8D00E
:10136C0023F05AFBA5E72348407800283FF419AC3A
:10137C0000208DF81870ADF81900DDF826004FEA42
:10138C003040059005A829F083FDFFF70ABC39070A
:10139C003FF52AAF9DF81E1001293FF425AF00211F
:1013AC0019F0C0FD20B1407901380228FFF41CAFC0
:1013BC00B8F84010BDF8520023F068FD30B18078C9
:1013CC0028F066FB01380728FFF40EAFBDF82800A3
:1013DC0029F09CF818B104208DF8200004E7BDF822
:1013EC002610BDF8280002223FE700BFCC140020D5
:1013FC0014130020E4120020D85D0020A76C0020FC
:10140C00BE14002010D60200941000209C10002066
:10141C0098100020CA1400202DE9F04F8FB00C4614
:10142C0048070FD4200441D4E00400F19781200632
:10143C0000F1C081A00700F1D481200500F1F381F7
:10144C000020B4E1DFF820050178062900F2AD8117
:10145C00DFE811F007009401AB01AB019901AB017E
:10146C00A001DFF81055DFF804152A7891F82B301D
:10147C00022A02D19E0600F198815E0700F19D813F
:10148C009B0740F192810423037091F82C30DB0709
:10149C0000F08B8191F82E30002B00F0528228F056
:1014AC00F0FB0420012102F09BFE57E2DFF8C80498
:1014BC000394DFF8BCB4DFF8B094DFF8C474DFF841
:1014CC00AC44DFF8B054DFF8BCA448F20208008842
:1014DC0002909BF800001EF0C3FC002800F03A813B
:1014EC0006460078D3282DD1F089404540F019816B
:1014FC003878002800F0158199F80000012840F098
:10150C00108129F0CBFD002840F00B817088002859
:10151C0040F00781A24604AC1221204629F0E6FCDB
:10152C002AF0E0F8304621461AF062FABDF81C00A9
:10153C00B0F5285FC0F088800120022121F0FAFC70
:10154C0054462AE099F80010884217D1012834D06B
:10155C00032840F0E68028780138012800F2E18069
:10156C00B078012851D0002840F0DB80707800283A
:10157C0000F0BF80002020F011F9D2E00A2811D130
:10158C0094F82B00BA46B71C3071A16909B13846E2
:10159C008847384627F0DCFF5746DFF8D853DFF88A
:1015AC00E4A3BEE02978002940F0BB80092840F074
:1015BC00B880A168B01C8847B3E0287801380128AE
:1015CC0000F2AF80707860B194F8330094F8341066
:1015DC00013084F83300C0B2884202D901200021C6
:1015EC009DE099F80100032858D0022871D00128F9
:1015FC0040F097803878002800F08C8029F04EFD60
:10160C00002800F09280012085E07078002875D0C9
:10161C002AF026F84FF6FE71884203D1BAF816006C
:10162C00884207D0AAF81610ADF8281053200AA942
:10163C0023F0E2FA20F0F2FF27F0DAFF00208AF81C
:10164C0026001FF023FD6CE0CF48006809A90AAA08
:10165C0018F00AFF074602985446C64DDFF824A33B
:10166C00874212D29DF8380010B1FD208DF8380059
:10167C000420394614220AAB26F09AFCC34907EB26
:10168C00470001EB8000012141720020012184F808
:10169C003200012002F0A4FDB94F42E0A2460AAC90
:1016AC00AB20002122461EF003FE04200494544675
:1016BC00DFF8D0A2AF4D8DF8140004A810F06CFF29
:1016CC002AF010F89BF800004FF4805141F2883258
:1016DC001DE0012020714FF48060ADF828000AA8AD
:1016EC001AF0E7FE29F0FEFFA4484FF4805102687F
:1016FC000BE011F011FD606998B9A2E702204FF4DC
:10170C00805140F6B83289F802009BF800002AF0AC
:10171C0065FA06E0002084F832000120012102F075
:10172C005FFD304628F080FAD3E694F8350020B1FE
:10173C00E0690028F5D08047F3E700200021022261
:10174C000023ADF8280002208DF830000AA828F0FC
:10175C0095FCB5E7039880F4004028E085480078B4
:10176C000138012859D88048017803294DD0012926
:10177C0053D14178002021F0DDFB4EE00120012106
:10178C0021F0D8FB11E028F07CFA0420012102F0B2
:10179C0027FD0AE0002132220170744880F82A10DB
:1017AC007348042100782AF019FA84F004000FB071
:1017BC00BDE8F08F84F08000F9E70522027091F803
:1017CC002C2092072CD591F82E204ABB05220260C2
:1017DC000120487000201EF09FFB022027F014FC13
:1017EC00E3E764480078013801280BD80020CDE9E4
:1017FC000A000AA814F050F820B15D4802210078C4
:10180C001DF0E6FC84F00200D1E78178022904D1B6
:10181C0001218170002021F069FB84F48050C6E71F
:10182C0005200021B3E753480078002840F086805B
:10183C00DFF838A1DAF80C50002D79D004A80DF19E
:10184C00280B01300BF104060390002D6DD0A87A03
:10185C0018B10138A872000646D19AF83180B8F157
:10186C00000F11D00020A91C08228DF8280030464A
:10187C0029F0DCFC58461AF057FE28B12A88BDF82E
:10188C002A00314626F058F9AF1C0DF127015A46B3
:10189C00384618F0E9FD8146384609A925F011FEB5
:1018AC00B8F1000F05D09DF8380040F00200022876
:1018BC001CD1DAF80800A0B103983946082229F0A7
:1018CC00B5FC022000220C238DF81000BDF824007A
:1018DC00ADF81A002648007804A90091092122F0DD
:1018EC007CFE284620F0D2FCED68AEE7384626F0A8
:1018FC004DFC9DF827000128DBD15846142129F016
:10190C00F5FA224A09EB490000215B4642F8201007
:10191C0002EB8000142241604172FF2049468DF891
:10192C003800042026F044FBC3E7DAF80C0028B991
:10193C000F484FF4006100781EF064FA84F40060E4
:10194C0035E7013A012A09D80322026001204870C8
:10195C0001201EF0E1FA012027F056FB2878002820
:10196C007FF423AF04205CE70C6C0020AC0F00204C
:10197C00AE6C0020141300206EDB02005C140020FF
:10198C00A1140020D85D0020E46B0020904C0020B6
:10199C002DE9F04F9DB00446DFF81C05406818B1E6
:1019AC008047002800F04782DFF810A5DFF810B55B
:1019BC000E940DF13C099AF80000411E002C0C917C
:1019CC0018BF01218BF80F109BF802800BF1180443
:1019DC009BF80110002700250D91C0B287421ED242
:1019EC00B84517D0FEB200214A460423304629F0F0
:1019FC00D5FB0F9810F4403F40F0040018BF0135A0
:101A0C00C0B27C2806D130460621F82228F01EFAF6
:101A1C00F82020709AF800000C340137DDE7E9B2A9
:101A2C0001380022884204D19BF80500002800F000
:101A3C003F82CDF82C80DDF83880DFF87C9440466E
:101A4C00B8F1000F08BF1020069015AE00200290D0
:101A5C00DDE90C740025380400F0EF819BF80F00D1
:101A6C0010B901208BF80F00E0B200210FAA04235B
:101A7C0029F094FB0F98B8F1000F19D010F4403FE7
:101A8C0018D04FF400609AF800100135013FABF804
:101A9C0010009BF80F0001388BF80F00012050FA52
:101AAC0084F0B0FBF1F202FB11048BF80D40D2E78D
:101ABC00002501E0CDE90C74C0B2702804D00D985B
:101ACC007021C0B224F09AFA05950B9D00210FAA43
:101ADC000423ECB2204629F061FB9DF83C00FE2863
:101AEC0003D02046FE2124F089FA20460621FE224E
:101AFC0028F0ACF94FF400600D9F0BF116018BF838
:101B0C000C50ABF810000020ABF81400FF208BF841
:101B1C000D708BF80E00F8B2400050FA87F001EB14
:101B2C008000B0F806A0600050FA85F001EB80054B
:101B3C00FE20ABF812A0294601F8020FE1480491EF
:101B4C004FF4006129F0D2F90020DC493B4609949E
:101B5C0089F800009BF80F00097850FA87F00138DB
:101B6C0090FBF1F202FB1100019035F8060F039582
:101B7C005FFA83FB0A900D93A34500F05681ABEB03
:101B8C000400B0FA80F04009089000200790002073
:101B9C00C00740F097801FFA8AF4162C74D999F874
:101BAC000000002840F04781AAF10707584610AA08
:101BBC00B9B218F061FDBDF84E5005F11000A0420D
:101BCC003FD89DF84A0096283BD1A7EB05099DF814
:101BDC00492029465B461FFA89F840461BF0FCFF5A
:101BEC0078BB9DF84B00C10701D1800706D40020BB
:101BFC00CA46DDF83880DFF8C092C9E7E81D83B229
:101C0C000A9813FA80F4B4F5006F01D90120F0E7BB
:101C1C00AC4980B2081A4146C01A00F50062584619
:101C2C0029F0BCFA07980130B4F5006F079004D185
:101C3C0001204FF400610A91DAE70020CA460A94A9
:101C4C00D7E7AAF1010ADDF83880DFF86C92544628
:101C5C00A0B216283BD93628A4F1160558463246B0
:101C6C0088BF2025641BABB2A1B229F097FA2804D7
:101C7C00EED016FA85F010F8010C962801D0013D33
:101C8C00F5E705EB040A82E7079810B18C4929F0B7
:101C9C0008FC0198C0B2834500F0CB800D9901205F
:101CAC0050FA81F085490978B0FBF1F202FB11037F
:101CBC00834903EB430001EB8000B0F81CA0DDE985
:101CCC00094055E7079810B17D4929F0EAFB00203F
:101CDC0008900D980B9099F80000002840F0AB800C
:101CEC000A9B7849C3F5006011FA80F2A3F1100049
:101CFC00102183B2099823F09FFB99F80010084338
:101D0C0089F80000089890B16C4800780BEB000142
:101D1C00013991FBF0F202FB1011C8B20B9140009B
:101D2C0050FA81F0664901EB8000B0F81CA0DFF896
:101D3C0090B10B980A99099C01238BF80E0003981B
:101D4C00ABF81010BBF91220ABF814A001809BF873
:101D5C000D10204625F0BCFDBBF914209BF80E108D
:101D6C002046022325F0B4FDBBF81000B8F1000F9B
:101D7C00C0F5006007D00699DFF840A18842A4BFE7
:101D8C000121029101E0DFF834A1069988424FF05D
:101D9C007C01B8BF7821099C204624F02FF90EF065
:101DAC007BFC07469BF80F000621FC22C01B8BF81E
:101DBC000F00204628F04AF80499FC209BF80E30BE
:101DCC00087005989BF802100D9317FA80F00144E7
:101DDC009AF80000B1FBF0F202FB10118BF8021024
:101DEC000B910131CAB2B2FBF0F202FB10118BF86D
:101DFC00011003EB43010BEB8101898B102906D1F8
:101E0C000D990131B1FBF0F202FB10100D900C9802
:101E1C00C01BB8F1000F0C903FF41AAE029880F082
:101E2C000100C0077FF414AE07E00120A346089020
:101E3C0051E701984EE700223AE07C2024F0F8F8B4
:101E4C000446FF281DD17E2024F0F2F80446FF281A
:101E5C0017D19BF8014004EB44000BEB8000807D14
:101E6C00FF280AD09AF800009BF8021001440139AF
:101E7C0091FBF0F202FB101403E020467E2124F0CB
:101E8C00BDF8E0B2FE218BF80340400050FA84F01C
:101E9C000BEB8000808BABF806009BF8020024F063
:101EAC00ADF800208BF80500BBF81000C0F50062FF
:101EBC0010B21DB0BDE8F08FA0100020A66C002061
:101ECC004E620020D83800202DE9F04F95B0DFF895
:101EDC00F8640546DFF8F4B4307803288BF800007A
:101EEC0040F03F81002030708BF800000CAC204695
:101EFC0029F0C8FE2046002127F0E1FEDFF8D0A42F
:101F0C00CBF808005221504628F0F0FF4FF0FF307C
:101F1C00AAF81400CAF81000CAF80C0025F0EEFC60
:101F2C000020294620F07EFD0BF11001CBF80C00AF
:101F3C0029F036FEDBE90502DFF89854B0FBF2F12C
:101F4C00C9B2052928BF05218AF800102970B2F5FD
:101F5C00006F40F00481B0EBC12FC0F00081DBF8C2
:101F6C000C00002800F0FB804FF40060DFF8706478
:101F7C004FF00009FF22AAF80600FF208AF8032080
:101F8C008AF8059004900020079000200A90002009
:101F9C000890002006900020059000200990002059
:101FAC000B90FF200190FF200390FF200290CCB2F9
:101FBC00A14580F0D9805FFA89F700210DAA04238E
:101FCC00384629F0EBF8DFF814443846002114AAFF
:101FDC00A0473846012113AAA0473846022112AA6D
:101FEC00A0470D996FF06F0050FA81F2C8B20E2A1B
:101FFC0006D8012303FA02F245F201131A4203D167
:10200C00A0F1FE02022A04D242F28352B2EB914FAB
:10201C001DD0384616F0BEFA00288BF8000040F0B0
:10202C00E080384600210DAA042329F0B7F8DFF828
:10203C00AC433846002114AAA0473846012113AA04
:10204C00A0473846022112AAA0470D99C8B209EB45
:10205C0049020AEB8208C1F30142090A4446FD28F1
:10206C0004F8160F61709DF85210E270A17001D93E
:10207C0010212EE0BDF850104FF6FF72914228D17E
:10208C003846002132464FF40063DA464FF4006BB9
:10209C0029F084F86FF0030313FA8BFB1FFA8BF013
:1020AC0031584A1C01D10328F6D801220123D7B29A
:1020BC00042F06D8CFB2FF2F18BF13460132090ADE
:1020CC00F5E731505BFA83F0D346DFF804A381B215
:1020DC002078A8F81C109DF84E10702888F81A105B
:1020EC00BDF84C10A8F81E109DF84A1088F81B106B
:1020FC00BDF84810A8F820100FD0782811D07C28F3
:10210C0013D07E2817D0FE281CD0FF2820D107988A
:10211C00CDF80890013007901DE009980130099026
:10212C0019E005980130059015E00698CDF80C9053
:10213C00013006900FE00898013008901FFA89F0E2
:10214C00019008E00A98CDF8109001300A9002E056
:10215C000B9801300B90297809F1010927E7012030
:10216C00307015B0BDE8F08F0B9800060BD10A98B3
:10217C00C0B2012807D80998C0B2012803D8089822
:10218C00C0B2012811D99448042200240270CAB2AA
:10219C00E0B2904210D216F0FDF99BF80010013419
:1021AC00084329788BF80000F1E7079BD8B2A042CE
:1021BC001AD189480022027000208AF803008AF89C
:1021CC000100481E7E218AF80200BAF81C00AAF809
:1021DC000600002023F012FF9AF80200FE2123F0E3
:1021EC000DFF9BF80000BCE70998000625D00A9863
:1021FC00049A000603D1029A180600F084807648EF
:10220C0002210126D5B28AF80220017016FA82F05A
:10221C00B0FBF4F101FB14008AF80100284616F01B
:10222C00B9F98BF800002846FE2123F0E7FE8AF866
:10223C0005600020FFF7ACFBD3E70A98049A000670
:10224C0021D0654801218AF80220017011FA82F030
:10225C00039AB0FBF4F101FB140091B2FF298AF848
:10226C0001001FD10199FF2919BF8AF8031001EB56
:10227C0041008AF8030000EB40000AEB8000808BE1
:10228C00AAF80600ADE7DDE90520104300063FF48F
:10229C007AAF25F007FBA04280F084804E480321E2
:1022AC0001703DE048008AF8032010FA82F00AEB36
:1022BC008000818B1829AAF8061092D30739D0B266
:1022CC000DAA89B218F0D8F99DF83F004007B0D597
:1022DC003F49BDF84220002300930323C878C988E6
:1022EC00891A0DAA073989B207F0B4FD00287FF4CA
:1022FC0078AFBDF8401000293FF473AF9DF844004F
:10230C001FF0FCFD6DE725F0CDFA0621A042324806
:10231C0038BF03210329017002D0062952D060E78F
:10232C0025F0C0FA04468AF80C0000EB40000AEBDA
:10233C008000408BAAF80D000EF0AEF929782044ED
:10234C00B0FBF1F202FB11008AF802000130C2B2BC
:10235C00B2FBF1F202FB11008AF801007C2023F0A1
:10236C0067FEFF2812D17E2023F062FEFF280DD1DC
:10237C00FF2023F05DFEFF2808D1782023F058FEC3
:10238C0001469AF80100FF2918BF0846C1B28AF825
:10239C000300490051FA80F00AEB8000808BAAF808
:1023AC00060019E70798000609D0DFF824A0FE21E3
:1023BC009AF8020023F022FE2C78029A41E7064894
:1023CC0006210170FEE700BF83140020A01000203E
:1023DC004E620020A66C0020B26C002023B40200D8
:1023EC00D83800202DE9F04F87B023F0E1FADFF860
:1023FC009C148122DFF8A074DFF8A054DFF8A464E9
:10240C000A70DFF88C140860DFF88804FF21017073
:10241C000020DFF8981438802870DFF88404C9890C
:10242C0000783070DFF88004006890F808804FF670
:10243C00FE70404480B2884200F24A81DFF870B4EA
:10244C0006F110000422DBF80010083128F0EEFE33
:10245C00F07CDFF86094DFF86034B47C717C89F830
:10246C00000038881B7841EA0422C4F3011AB280B8
:10247C00043038801BB9BAF1020F00F02981BAF18F
:10248C00030F00F0258101F0070413B1002C00F0BC
:10249C001F81DFF828E4042C9EF8001008BF0029E7
:1024AC0000F016813BB1DFF818341B78862B02D173
:1024BC00022C40F00D81930410D402F00702022A82
:1024CC0008BF00291BD0DFF8F8030078862805D157
:1024DC000020744623F088FA2178A646307800282C
:1024EC004CD000294AD1012800F0F28003283FD0BB
:1024FC00022843D1B088400740F0EA803EE0DFF884
:10250C00D01391F88310022900F08180DBF80010C1
:10251C00012211FA80F000F1080102A828F086FED1
:10252C0038880130388029F06BF80446DFF89003C6
:10253C000078862868D1DFF8A453286808B929F0F8
:10254C0071FB9DF908000021002729F022FC296865
:10255C0048779DF808008F77C877204629F011FB43
:10256C00B18899F8000001F010011EF061FE4EE0F8
:10257C00B08800F00700032840F0AA80B08801075B
:10258C0000F1A680810402D4810500F1A180B27C07
:10259C00C2F38104012C00F09B809309012B00F005
:1025AC009780BAF1010F0FD840F0020101F007013A
:1025BC00032909D114B93F2A40F28A8024B9C149B0
:1025CC000978002900F084804FF6FB71BAF1020FF4
:1025DC00019308EB010C1DD1DFF8F082019B18F878
:1025EC00041018F8033003EB010A0023402AB4FA54
:1025FC0084F238BF012352091A4043061AD4002A28
:10260C0008BF0AF1020A19E0204629F0BAFA27F0AD
:10261C004DFE5FE0DFF8B082019B402A18F80410F1
:10262C0018F8033003EB010A08D3420648BFAAF19D
:10263C00020A03E0002A18BF4FF0020AC0F3002080
:10264C005FFA8AF11FFA8CF30A1A70709A423FDC17
:10265C006044F0460091401AF080703080B227F050
:10266C0099FDF060A0B3702128F040FC0020B07000
:10267C0098F8000018B9307900F0200028707078B4
:10268C0029784FF00008254691B300284FF0000040
:10269C002FD1B08800F00701032906D000200129B2
:1026AC0027D18B4991F8821019B38A48007818B158
:1026BC0028F086FAFE2807D023F042F920B927F03B
:1026CC0087F9002800F0E0800120B070254610E06A
:1026DC0028F0F2FB28F094FF754900240A6813686F
:1026EC001C7112680A6029F04CFA07B0BDE8F08F33
:1026FC000020F16801F1700281F836504A604A6599
:10270C007278B488F388002A8C81019C0B8181F843
:10271C002C4099F8004008BFA046A1F85830737CB3
:10272C00FF2581F84580B47C8D7303F0780360F34A
:10273C008203C4F30110184408743888801A5FEAC5
:10274C000A61388000F09880009ADBF8001011FACA
:10275C0080F0328102AD00F10801284628F066FDB8
:10276C00308939880844F1683880B07C0A7CC0F321
:10277C008104C0F3011902F0400894B3B9F1020FBF
:10278C0006D1B8F1000F03D0B1F8402002AD05E03E
:10279C00BDF808200235A1F84020CA874E4FFB89AE
:1027AC009A4203D04FF6FF739A4268D1032C0ED194
:1027BC0001F12E00294629F059FAF068F91C2E3047
:1027CC0026F032FE00285AD0B07C083509E035F8E6
:1027DC00022BCA85B9898A4203D04FF6FF718A420F
:1027EC004DD1402819D3B9F1020F04D154EA080194
:1027FC0008D1F16803E0F1680A7C520602D42A88F9
:10280C000235CA87C02805D3F0682946243029F040
:10281C002DFA02E02888F16888842A49B088097862
:10282C0000F0070089B1B9F1010F0ED8012802D1CF
:10283C002CB101200BE0032808BF002C05D1264940
:10284C00F268C989D28F8A4219D1032805D0012890
:10285C0012D11F4890F8820070B1F0681EF0EEFFA4
:10286C0050B90020F17CB070B07CC1F3011100F0C4
:10287C0078000844F168087407F012FE2AE71DF08E
:10288C0016FD1CF09FF825E7B0781FE7BB6C002005
:10289C00346C0020C06C0020946C0020BE6C0020B6
:1028AC00BD6C0020D4110020746C0020B0120020EC
:1028BC00C86B0020CE6C0020100B0020CD6C0020CB
:1028CC00C36C0020B86C002000DB0200FCDA0200B4
:1028DC00CC5C002098140020FC6A002040140020DE
:1028EC002DE9F0438DB0054680780224252800F2AE
:1028FC007380DFE810F026009E00BE00D100E400DB
:10290C00F2000001610261021701610261026102C1
:10291C0061026102610228012D016102610236012E
:10292C003A014301610261026102610261026102CA
:10293C006102610261024F015201550158015C01B3
:10294C006401DFF8847400240E258DF80440387877
:10295C00012807D801A81DF0E5F804469DF80400ED
:10296C0005EB4005EEB2304629F0D7F9002800F00F
:10297C00E0814FF000080546431C0021082280F836
:10298C000080012028F08EFA28F06AFE6872000A96
:10299C000721A872DFF83404E972007828733878BC
:1029AC00012800F2BB819DF80420002A6A7300F014
:1029BC00B78105F10E0000212346914280F0B081D1
:1029CC0013F8022B013100F8022B13F8012C00F83C
:1029DC00012C9DF80420F0E7A0F140010D291FD82F
:1029EC00DFE811F00E00F500EA01EA01EA01EA0164
:1029FC00EA01EA0103010E0119012E01EA013D0170
:102A0C0001ACE91C0822201D28F010FC204619F00E
:102A1C008BFDBDF806004021ADF828000AABD3E0D1
:102A2C00E02840F0C98100244720E0210022002347
:102A3C00ADE0202029F071F9002800F0BC812021A4
:102A4C00FF22044628F04CFA631C012000210822C6
:102A5C0028F028FA0546002818BF012501AB842070
:102A6C000021042228F01EFA002800F064810235AF
:102A7C0065E1E81C29F04DF9ADF80400832029F03C
:102A8C0063F8014601AA832028F004FF8DF8280082
:102A9C000AAB6720022190E0E81C042125F022FB00
:102AAC000190842029F050F8014601AA842028F0D6
:102ABC00F1FE8DF828000AAB672003217DE0612030
:102ACC0029F042F80146EA1C612028F0E3FE8DF85B
:102ADC00040001AB672004216FE0622029F034F878
:102AEC000146EA1C622028F0D5FE8DF8040001ABEB
:102AFC006720052161E000208DF80400E81C29F016
:102B0C0008F96A7900F4F851002A00F0F980B1F55F
:102B1C00A06F04D04FF6FF71884240F0FB804FF05D
:102B2C00FF30F5E029F0C9F8044629F0C4F8A449AF
:102B3C00604301ACB0FBF1F1204629F052F867205C
:102B4C00092104227AE015F8032B6720102155E0A7
:102B5C00E87824F0DFF88DF8040001AB6720112130
:102B6C002BE000246720142102E0002467201521AB
:102B7C00ADF80840019401AB062208E00024672060
:102B8C00162109228DF80C40CDE9014401AB21F04E
:102B9C0065F911E1F52020210BE0F520212108E059
:102BAC00F520222105E04FF6F570232109E0F520F0
:102BBC0024218DF8040001AB67200122F9E0F520F7
:102BCC002521ADF8040001AB67200222F1E0E81CDE
:102BDC0029F09FF8ADF8060001AC204617F014F967
:102BEC00231D672041210822E3E015F8030F6978C3
:102BFC0022F05EFB28806720482102222B46D8E079
:102C0C00E87825F0D1FB01AC014620461DF022FBF3
:102C1C006720492111E0EC1C204626F0E7FF002834
:102C2C0018BF2046B5F80B1018F0D4FF01AC0146C4
:102C3C0020461DF00FFB67204A2124222346B8E0D2
:102C4C0001ACE91C0822204628F0F0FA204628F0B6
:102C5C0057F88DF828000AAB67204B21ADE74FF0F1
:102C6C00FF3095F80380691D0190ADF81000CDE997
:102C7C000200FE208DF80600287903288DF830001C
:102C8C0003D10AA828F0F2FF04E0084629F041F825
:102C9C00ADF82800AF7B002F00F087807E0095F800
:102CAC000D90304629F039F800287ED005F10F013F
:102CBC003246044628F0BAFA00940AA940464A461D
:102CCC003B460CF06BF8002865D08378017842788D
:102CDC00057946798DF806308DF804108DF80520AD
:102CEC00C3788DF809608DF808508DF8073001A96C
:102CFC008B1D811D40794200184628F097FA51E04F
:102D0C00B1F5A06F03D04FF6FF71884202D10020BD
:102D1C002C49086001AB672006214EE785F80D8031
:102D2C006720002132462B4621F098F8284628F0DF
:102D3C00F2FF64BB3FE0019800BAC4F809000AAB8B
:102D4C0083200021022228F0ADF808B1043503E0FD
:102D5C00BDF82800A4F80D0004F10F036120002138
:102D6C00012228F09FF8002818BF083504F1100341
:102D7C0062200021102228F095F8002818BF103589
:102D8C002346257067200121202221F067F8204678
:102D9C0028F0C1FF0FE04FF6FF70ADF808006FF49C
:102DAC0080300190204628F0B6FF01AB67204D2102
:102DBC000E2221F053F8002420460DB0BDE8F0831C
:102DCC0040420F00086C002014130020BC1300209C
:102DDC002DE9F84305460C46480413D4A00024D42E
:102DEC00A0075CD460057ED4200500F10481200787
:102DFC0000F13781600040F1F4801BF0BDFB24F042
:102E0C008044EEE028F0FCFBDFF810140F6D3FB1AE
:102E1C00D7E90A1202F0E04201F00A01891849D000
:102E2C0028F0AFFE24F48044DBE0B948DFF8F073FF
:102E3C00016841F080010160B878012804D10420B8
:102E4C0023F05EF90020B87028F0DAFB0646042067
:102E5C0028F065FFDFF8CC130A68904219D12A7E5E
:102E6C00BAB1FA68AAB1DFF8B403806C002800F09C
:102E7C009580C16840F603020988914206D0C0686B
:102E8C0040F604010088884240F0888005F1140067
:102E9C0086E040F6C4120860C5E9042282E009F01D
:102EAC0059FDDFF87803006C002840F09B8024F07B
:102EBC00020496E0D7E90A65D7E90A12AA43B1439E
:102ECC00C7E90A1228F05DFEB8680028AAD056EAB5
:102EDC000500A7D0D7F808C03869B7F930103246CA
:102EEC002B46E0479EE728F08BFB054625F0B4FF08
:102EFC00002800F0B380C948876B002F00F0AE802B
:102F0C00DFF81C830420C849002288F81800C34845
:102F1C0027F076FD28F05CFEC44828F02CFE27F044
:102F2C006DFEC8F810000125042088F8025023F02B
:102F3C0051FF386990F82810C8F80400490703D5E8
:102F4C00436A04210022984701201DF011FBD8F898
:102F5C000400457614F086F9D8F8040081680B4615
:102F6C001A465B684BB11E88A6F60306072EF7D8E7
:102F7C0005FA06F616F0830FF2D0537B03F0F0033C
:102F8C00013353730023FD6853602D88A5F60305A8
:102F9C00012D00F28880C8F810309DE005F110007A
:102FAC0021F0FEFC304628F0ECFD23F02BFF78B12D
:102FBC002E6A28466FF4807100224FF00073B047E0
:102FCC009648806B10B11BF0D7FA01E044F0020474
:102FDC00EE692846002100224FF08063B04724F0B0
:102FEC00005434B1944821462830BDE8F84328F009
:102FFC00B0BEBDE8F8838A4EB078012804D1042015
:10300C0023F07EF80020B07023F0FCFE38B170681D
:10301C006FF4807100224FF00073056AA847306985
:10302C0040B127F0EBFD32697168801A000BC86063
:10303C0000203061794D7F490022284627F0E0FCC2
:10304C0002203076286C20B17B480221283028F0F1
:10305C0080FE1BF091FA24F40064C2E728F0B8FD5E
:10306C0041E028F0CDFA054625F0F6FEA0B1DFF8D8
:10307C00B08198F8000000070ED498F900000028E1
:10308C000AD4684614F0CCFB08B1009820B1DFF8E4
:10309C00AC9199F8610048B328F09AFD1BF06CFADA
:1030AC0024F008049DE7034633F8385FA5B190F887
:1030BC00445090F8456005F0F00580F8445006F057
:1030CC00F005013580F8455000255360C5634587F0
:1030DC00507B00F0F000507355480022C261016033
:1030EC00012026F065FB24F480647AE70026012792
:1030FC00602E0FD009EB0600817A31B18772407ACD
:10310C0007FA00F0C0B223F015F82036F0E700BF44
:10311C00CC210840032088F81800444828F02BFDE7
:10312C0028F056FD424F3D4D002278690020786111
:10313C00F968F8602846424927F062FC27F05EFDEA
:10314C00D8F80C10D8F82020411A02EB1130B0EB53
:10315C00113F38BF4FF0FF3098F82410C8F820000A
:10316C0021B1D8F80810B0EBC12F20D926F030FBD4
:10317C00B8B140F60900414621F83C0F00204880C8
:10318C004A7B02F0F00201324A730A7B02F0F00231
:10319C000A734860F8613960B8F83E0010F4406F6B
:1031AC00FAD00020C8F82000012088F824001FF075
:1031BC00F1FB2448002101600220002126F0F8FADE
:1031CC00022022F09DFF102011F0A2FE98F80100C1
:1031DC0020B9D8F80400503028F0B7FD1A48807890
:1031EC0010B90D2011F094FE98F8250028B100209C
:1031FC0088F82500052022F083FF002088F81800AD
:10320C001248C8F81C000220B5F85610B5F8542026
:10321C00914208BF07201AF023FA3FE7E00D002087
:10322C007C0B0020CC130020418E0200D8630020C0
:10323C0000100440C9120100200D0020B85E0020CF
:10324C00E9E501000000046038DA0200C90E010053
:10325C002DE9F04F8DB084780226142C00F21F82D9
:10326C000546DFE814F02900150015004A0085001A
:10327C001C021C021C021C021C021C021C021C0252
:10328C001C021C021C028E009C00AF00BE00CC0075
:10329C0001206A78022C8DF83100089240F0C08031
:1032AC00E878291D03288DF82C0040F0E18009A84E
:1032BC00082227F0BBFFE0E010208DF8240010203E
:1032CC0028F02BFD98B10446DFF8E003214660603E
:1032DC00E81C11F00FFB8DF8240028B9204625F0CE
:1032EC006FFE8DF8240010B1204628F014FD002646
:1032FC0009AB642000210122C2E10020CDF82A0094
:10330C00ADF82E00CDF8260002208DF82C00E81C1C
:10331C0028F0FFFCADF824006979A8798DF82D1000
:10332C0028F004F88346E81D28F0F3FC95F80C907F
:10333C008046687AAC7A95F80BA04FEA49078DF86D
:10334C003100384628F0E9FC002800F01081CDE966
:10335C00074806464FF0000805EB0800474570D0BB
:10336C000D3028F0D6FC26F8080008F10208F3E727
:10337C00E87822F0E3FF8DF8240009AB64200421E7
:10338C0089E1E978032900F25281281DDFE811F068
:10339C000400510155015D011AF004FA76E1E81CB4
:1033AC0028F0B7FCC04C6668002E00F0E4806A7907
:1033BC00002A00F0E4803368A91D184427F036FF7A
:1033CC000020D9E0B84EEC1C04212046376824F0CC
:1033DC0089FE002F4AD0B968814200F0A0803F6876
:1033EC00F7E7A888ADF82400E87809A926F07EFE56
:1033FC008DF832000DF13203642013214BE10026CD
:10340C00E878ADF8246009A925F0ECFFBDF824009C
:10341C000DF1320314210222ADF8320064202FE1A9
:10342C00E81C02218DF82C1028F073FCADF8240058
:10343C00002005F10608ADF82E0068798DF82D00F6
:10344C0026E0BBF1000F00F0B580437B0DF131019C
:10345C000E30CDE90496CDE9000107985946CDE927
:10346C00020A09A8089A1FF0EEFEA4E0012000E170
:10347C00084628F04EFCADF82400287B8DF82D0072
:10348C0005F10D0028F045FCADF82E0005F10F08F4
:10349C0098F8000027F04AFF054608F1010028F0D3
:1034AC0038FC98F8036098F804A098F805B08146A9
:1034BC00022C8DF8326009D108F1060028F029FCA5
:1034CC00074608F1080007F10A0104E098F80670B5
:1034DC0008F1070039464DB10A3189B2FB2907D3EF
:1034EC00DFF8C481D8F8040000286ED0022009E06F
:1034FC000DF132018DE8030C09A84A463B462946DA
:10350C0004F0CAFA089E8DF8310006F0E00020287D
:10351C0040F0C4800DF1310364202146BBE0EC1D6A
:10352C00204628F0F6FB6D7A002D00F0978005F10F
:10353C0002098246484628F0F0FB002800F09880EB
:10354C000026457080462A460670786800EB0A0112
:10355C0008F1020027F06AFE5FFA89F2642012215A
:10356C00434620F07BFC404628F0D5FB97E010202A
:10357C008DF8320024E010208DF8240016E0D6F8E7
:10358C0000C0F38AB28A3169757EB77E06F11800E5
:10359C00CDE900C0301DCDE9025704F07DFA8DF85D
:1035AC002400606828F0B7FB0020606009AB642041
:1035BC00112170E002208DF83200304628F0ABFB70
:1035CC000DF132036420032165E007F11C0028F0A3
:1035DC00A4FB0028C8F8040055D000F11C010C22F3
:1035EC00016000208DF83100D8F8040009A90430DE
:1035FC0027F01CFED8F804000F214FF47A720561F5
:10360C002A4DC17680F81AB080F819A00676C782C8
:10361C00A0F814900821287828F0E0FA089E0028D9
:10362C003FF473AF287808211BF0D2FD6DE7022020
:10363C002CE000781BF0FCFD28E0007827F076FEEB
:10364C0018B327F00DFB002020E028F062FBA979CD
:10365C0028F090F8B0FA80F0400917E03068B842D2
:10366C0001D138683060384628F055FB002000E066
:10367C00102000262070642012210222234666703E
:10368C0020F0ECFB0BE010203CE701208DF824002F
:10369C0009AB64201021012220F0E0FB002630460B
:1036AC000DB0BDE8F08F00BF58130020A56C0020B2
:1036BC002DE9F04F8FB00C4608040CD4A00426D48E
:1036CC00DFF88853287802282DD1E10740F00181DA
:1036DC00A10641D558E0DFF86C0300781CF0C0FB64
:1036EC0090B10178DFF8602305460020602808D0EF
:1036FC00135C08308B42F9D1104450F8041C284656
:10370C008847284626F090FA84F4004595E11FF08E
:10371C00A1FC28B10546FDF7F5F9284626F084FAF8
:10372C0084F4005589E1A1062ED4012814D8E106B1
:10373C0000F11781610600F12F81210600F13D8116
:10374C00E10500F13F81210500F14181E10400F127
:10375C005481610400F15B81A10700F1E080A105B7
:10376C0000F1FA80210700F11181610500F1198146
:10377C00E0034FF0000540F160811DF01FFFB648DB
:10378C00C57084F4803558E1AE4F2021387821F093
:10379C00E9F8DFF8C4820125D8F80810084317D0DF
:1037AC0028F08BFA054628F086FA68434FF47A71B4
:1037BC00B0FBF1F0D8F80810401A4FEA500538BFAA
:1037CC006FF00045002908BF0D46002D00F0C280A7
:1037DC0000200421002225F03FF806464FF0060A8F
:1037EC004FF0FF094FF6FF780DF1080B002E4DD06E
:1037FC00304604210022374625F02EF8064638893B
:10380C00401B38BF002038810004EFD1B87BD0B307
:10381C0001280AD17889400707D4386887F80DA0A9
:10382C00B721407B1FF0CEFBE0E739685A468DF894
:10383C000690ADF80480086AC97F0DF0B7FE012828
:10384C001BD1B87BB97A8DF838000907788A40F01B
:10385C008002ADF8362006D540F4C070ADF83600C5
:10386C00387B8DF83A00786910B1007BADF8180000
:10387C00584601A9002202F0D1FD387B87F80DA033
:10388C0017F090FCB2E701207873AFE7DFF8C8813E
:10389C006C4F25F03FF900200121002224F0DCFFC1
:1038AC0018B1387820211BF093FC00200421002251
:1038BC00002624F0D1FF002847D0068904210022DD
:1038CC0024F0CAFFA0B10289B1B2914228BF1646BA
:1038DC00F4E7654890F82C100F2906D190F82600D3
:1038EC00022802D3002023F015FA84F00105A4E08D
:1038FC00A8B2B1B2814223D9D6FA55F0202180B2B8
:10390C004200387828F06AF928F0D7F9054628F0F3
:10391C00D2F968434FF47A71B0FBF1F615E05348D5
:10392C00007818B302AD284628F0CAF827F086FEB6
:10393C004F490B784F490A7829461CF095FD22E037
:10394C00387820211BF044FC0026C8F8086084F06D
:10395C00200572E000259CE717F0E0F884F4007570
:10396C006BE008F05BFB84F0100566E03E48418B91
:10397C00012028F0C6F92878022804D13148012109
:10398C0000781CF03FFA84F0020556E03248012121
:10399C0084F00805817050E00CF002FF84F04005C3
:1039AC004BE0022808BF17F07DFB2F480121808CCB
:1039BC0028F099F984F480653FE026F007FE84F046
:1039CC0080053AE024F068FD84F4807535E01DF044
:1039DC0037FA2048007801280CD11D48007848B1EE
:1039EC004FF47A7100FB01F216484FF40061007835
:1039FC0028F0F1F884F400651FE01748017819B13C
:103A0C00002101701DF01CFA84F4805515E0144857
:103A1C00006880B11149097801290CD180471148FF
:103A2C00006800B1804707484FF480414FF47A7228
:103A3C00007828F0D0F884F4804528460FB0BDE813
:103A4C00F08F00BFA76C0020B4D302001413002029
:103A5C00B3140020B4140020E4120020B114002090
:103A6C008410002090100020D85D002090140020BD
:103A7C00B7140020B91400202DE9FE4F84780226DB
:103A8C001D2C00F2A6810546DFE814F0DA00530085
:103A9C00E2005B006F00A301A30179001E0045004A
:103AAC0084009500A100A301A900E700A301A301D4
:103ABC00EF0002011001A301A301A301A301A301C3
:103ACC00A301A3011E00450028F076F806466238D3
:103ADC000227092807D8012101FA00F040F28131B0
:103AEC00084240F02F81A6F13A000228C0F02A814A
:103AFC00242E40F026816B46352000210422002420
:103B0C0027F0D0F9002800F07F81012002228DF8E7
:103B1C00080000207FE100208DF8080028F04CF808
:103B2C000646092C63D195F8059095F80680072078
:103B3C0066E040F259606B460121ADF8000061204F
:103B4C00B2E00120EC1C8DF80000E220214621F0AF
:103B5C0053F830B901200821224627F09BFE8DF83E
:103B6C0000006B46612003212FE16C46E2202146C8
:103B7C0026F0AEFA612004210822234626E128F023
:103B8C001BF80446681D28F0C4F8242C40F09B80D8
:103B9C00002015E1E878032800F2AB80281D28F0FE
:103BAC00B8F80246E8789F4931F810109E48007822
:103BBC0028F014F89EE0E878032800F2A1809949D7
:103BCC0031F81010984800781CF01CF999E027F097
:103BDC000DFFADF800006B4661200C2164E000265F
:103BEC006B4661200E2101228DF80060C2E0681D39
:103BFC0028F08FF88146E81D28F08BF880460920C4
:103C0C006F46242E18BF2F1808BF3526304609EBF7
:103C1C00080527F099FF854201D902207DE0B9F112
:103C2C00000F04D1304641463A4621F0BDFF3046E4
:103C3C0041463A4627F02EFE002868D00A206CE058
:103C4C00E878012802D0002840F0C28027F01CF848
:103C5C00764B612002210A22B8E0E878291D012860
:103C6C0061D0002866D1E02061E027F0A5FF044672
:103C7C00681D28F04EF8242C0FBF0020014620466A
:103C8C0027F0FFFE8DF800006B46612012219CE0AE
:103C9C0027F092FF24280CBF002027F055FFADF829
:103CAC0000006B466120132102228FE0E878694600
:103CBC008DF80000E02006F003FF8DF8080002AB41
:103CCC006120142181E005F10806ED790146A84236
:103CDC0072D92046002227F0D7FD09288DF8000064
:103CEC0070D1002D6ED020462946324627F0D2FDE9
:103CFC0068E002208DF800006B4661200A2164E028
:103D0C0002208DF800006B4661200B215DE0012E36
:103D1C0005D1E220394620F06FFF8DF8080002AB88
:103D2C006120214651E00878022857D2522020F019
:103D3C0063FF00E002208DF800006B4661200F212C
:103D4C0043E00027681D082C01D1057802E027F01C
:103D5C00E0FF0546304627F0F7FEA84298BF022741
:103D6C005FB100266B466120214602228DF800705F
:103D7C008DF8016020F072F82BE0471BB8B2F728E1
:103D8C0028BFF727B81C5FFA80F8404627F0C5FF1C
:103D9C0010B31FFA87FB00F10209824648465946C8
:103DAC0027F0A4F8304629465A464B4627F07AF8B5
:103DBC000546C0B10A2721E02046324627F064FDB3
:103DCC008DF800006B4661200721012220F046F897
:103DDC0000263046BDE8FE8F1027C2E76946522008
:103DEC0026F076F9A9E78AF80170002761202146B0
:103DFC00424653468AF8007020F030F8504627F0BF
:103E0C008AFF002DADD1E3E700988DF8084004221D
:103E1C00ADF80A0002208DF8090002AB61200821E0
:103E2C00D4E700BF0CDB0200A56C0020B0DA020066
:103E3C002DE9FE4F8846080426D45FEAC87004BFFB
:103E4C000020BDE8FE8FE548056827F036FF0446E4
:103E5C0027F031FF60434FF47A714FF6FF72B0FBDD
:103E6C00F1F14FF6FF70002D00F01A812B886C8851
:103E7C00CB1A9BB29C4240F21C81E31A94B2A3422F
:103E8C00B8BF1A46ED68EEE7DFF840A3CDF8048022
:103E9C009AF800001BF0E4FF002800F0FC800646B6
:103EAC000078012840F0EC80DAF8041096F8339092
:103EBC00D6F814B096F8138021B1484688470028EC
:103ECC0040F0DE80718896F83100022224F030FA3E
:103EDC000546002842D0287A297CA0F10108FF2948
:103EEC0000F0BB80707F4F46C00718BF0027E97CED
:103EFC00287D0144B94204D8E974FF2101FA00F08D
:103F0C006874A969A87C96F83020896A10FB0710A0
:103F1C00F16A27F08BF9287D697CB7FBF0F202FB84
:103F2C00107001228240D2B20A436A74C8457CD117
:103F3C0096F83010AB7C13FB0713A9698B844FF4F4
:103F4C00FF7303FA00F0C0B21043FF2868746CD101
:103F5C00287C1CF0E1FAFF2028747FE0707FC007FA
:103F6C0000F08E80B07F27F0E1F9002800F0888007
:103F7C0004461C2027F0D1FE002800F081801C2173
:103F8C00054626F0B3FFB07F02A925F02BFA9DF869
:103F9C00090002212875284625F07AFA708896F8CF
:103FAC00312096F8301096F83330A880287DEA71CD
:103FBC00FF2202FA00F0687460680078A974287413
:103FCC00302013FB010080B224F0FEFE0028A86113
:103FDC005DD004461A20B11C2060708CA080A01DFE
:103FEC0026F092F8F27F04F13000B17F96F8283079
:103FFC00C4F81CB084F81980A062307CE273744A57
:10400C00217563750121A075928C2282F28EA28596
:10401C00F28C6282B6F81100A4F817009AF800002E
:10402C0085F808901BF0D4F855E727F046FE0446B7
:10403C0027F041FE60434FF47A71B0FBF1F0654913
:10404C0028806348097800794843642148436249D1
:10405C00097800FB0100688000E04F46E87C297D70
:10406C006A7C01440139B94218BFFF2A0CD186F889
:10407C003300708806F11C0186F8342018F0A3F97F
:10408C00304625F0D1FD03E7C845F9D1EFE72846C6
:10409C0025F00EFAF4E7019880F40040BDE8FE8F9D
:1040AC0092B282424BD049480121007827F096FD0C
:1040BC0045E0A879022806D1287CFF2837D0A869CA
:1040CC0025F0B2FD33E027F0F8FD044627F0F3FDB0
:1040DC0060434FF47A71B0FBF1F03F49288095F8BA
:1040EC003800097888421BD295F83620FF2A06D171
:1040FC0095F83720013085F8380085F8362095F88A
:10410C00351095F8394082F0FF0300200126C7B224
:10411C00A7421DD206FA07F71F4214D10130F6E769
:10412C00EA8BA87E95F82A10E92320F0A1FD2846F9
:10413C0025F0BEF92548012100781BF049F888F0DC
:10414C000100BDE8FE8FFBB201441A4385F836200E
:10415C00AB8F95F83440C8B204FB10339EB2A64224
:10416C0003D2FF2285F8362002E0FF2A08D123462D
:10417C00184A174E1278367972436426724302E05D
:10418C0095F83A2023466A802A8D0E0606D022F036
:10419C00200244432A852A6C224404E042F0200188
:1041AC002A6C2985297A85F82E10E9796A6285F8B6
:1041BC002D10D9B269840549496811B18847002886
:1041CC00B8D105F1100004F00BFBB3E73813002055
:1041DC00D85D0020A7140020AD140020CC4700208F
:1041EC007FB50138072800F24C810C46DFE810F04F
:1041FC0008002C0054006E0089004901A600C9007B
:10420C00CB4800780138012800F23B81002C00F0EB
:10421C00478100200321002420F064FFC64DC74EC7
:10422C000420042132222870307827F0D7FC082093
:10423C00002107F0BBF830786C704FF4805104B05B
:10424C00BDE870401BF0DEBD0020002527F0A6F86D
:10425C00BB480121017004208DF80D0074B1B548E4
:10426C00B34C45852078012803D1072025F0F0FABE
:10427C002078022802D1062025F0EAFAAE48042163
:10428C0032220570AD48007827F0A8FCA94890F8B8
:10429C002B1001F0FE01F2E0A5480078013801284E
:1042AC0000F2EF80A54804213222007827F096FC1A
:1042BC00002C00F00F819F4C9F4801210170206958
:1042CC00002800F0EC8021F093FAF8E70120002C94
:1042DC008DF80D007BD0974800219B4A80F82A105E
:1042EC00984827F017FA924C2078012803D1072020
:1042FC0025F0AEFA2078022870D1062025F0A8FA15
:10430C006CE002208DF80D008A48002C73D000213F
:10431C008D4A80F82A108B4827F0FCF900200321E5
:10432C0020F0E0FE824C2078012803D1072025F0F4
:10433C008FFA2078002877D1092073E07C4D00207B
:10434C008DF80D00002C28787BD018B9092025F0A9
:10435C007FFA2878022806D10820002107F026F8D9
:10436C00042025F075FA11F0BFFC73480021C82217
:10437C00017070480D2180F82A10704827F0B4FBAA
:10438C0078E005208DF80D0069480078022878D176
:10439C00002C00F0C38068480022C178C270017004
:1043AC0042F20800002107F001F862480D2190F854
:1043BC002B2080F82A10C17802F0DF02002980F847
:1043CC002B200CBF04200D2025F042FA59E0584850
:1043DC00007818B95748022180F82A105648002155
:1043EC0032220170554827F07FFB524890F82B1071
:1043FC0001F0FD0143E0082180F82A104C490978AE
:10440C00012911D890F82E0070B900200DF10A0185
:10441C008DF80A00522020F0EFFB26F0C1FC20F0B2
:10442C0047FA002025F014FA43480021322201708B
:10443C00424827F059FB3F4890F82B1001F0FB0144
:10444C001DE03C4C022812D194F82E0078B194F85F
:10445C002B00002140F0200084F82B0005208DF863
:10446C000D00082006F0A2FF0A2025F0F1F9022029
:10447C0084F82A002F4890F82B1001F0EF0180F8F7
:10448C002B102C480022032390F82A008DF80C00E6
:10449C002A48007803A900910A2120F09EF87FBDDC
:1044AC00244C0720254D4FF4805184F82A0001201C
:1044BC008DF80D0028781BF0A5FC0020002624F0B8
:1044CC0003F92878022141F2883284F82B6027F016
:1044DC0085FBD6E7174C022000218DF80B1084F8D1
:1044EC002A001548017094F82B000DF10B0100F017
:1044FC00FD0084F82B0001208DF80D00522020F0D7
:10450C007BFB26F04DFC20F0D3F9002025F0A0F920
:10451C0020690028B5D021F06BF9F9E70548022194
:10452C0080F82A1090F82B1041F02001A7E700BF6B
:10453C0014130020AC0F00200C6C0020AE6C00207B
:10454C00A4140020D85D00207A14002092B0DFF86B
:10455C00E492D9F8000010B1002180F845104830E1
:10456C0024F02AF927F04CF88046072010F090FD33
:10457C0019F0ACF810B1B04827F0CEF91CF050F897
:10458C0001AD284626F0B2FE0427002029468DF8FE
:10459C00047026F0B3FEDFF8A4A2A94ECAF80000FE
:1045AC003068006880473068C1680AAD2846884783
:1045BC0030688DF828702946426800209047A14C3D
:1045CC0020603068C06980473068816A06AD284633
:1045DC00884730688DF818702946026A0020904789
:1045EC002168994D286019B9984827F095F92868E1
:1045FC0010B9974827F090F9DAF8000010B99548EF
:10460C0027F08AF921F066FED9F800004FF0FF344C
:10461C0038B1CDE9104410A9082225F025FC012859
:10462C001BD1CDE91044082027F077FB002846D099
:10463C0005460026052E04D827F0D8F9A8530236D3
:10464C00F8E74FF6300029460822E880824826F029
:10465C00EDFD284627F05FFB09E0D9F80010CDE905
:10466C0010440029DFD07C48082226F0DFFD10AA78
:10467C000120082127F008F9092800D0D8B923F027
:10468C0042FE800712D4CDE91044CDE90E440EABA6
:10469C0001200021082226F005FC60B90EA810A903
:1046AC00082225F0E1FB002800F0BD806A4A0120B9
:1046BC00082127F0EFF86849E22020F09DFA13F06A
:1046CC0005FD282027F029FB644E0028306052D0CD
:1046DC00634F644C07F10C0527F002FA26F016FD27
:1046EC003068056007F1100527F0FAF927F09CF8FF
:1046FC003068456007F1140527F0F2F91DF0B4FF9E
:10470C003068856007F1180527F0EAF91BF0DCF931
:10471C003068C56007F11C0527F0E2F921F036FB83
:10472C003068056107F1200527F0DAF920F056F919
:10473C003068456107F1240527F0D2F91EF082FF9D
:10474C003068856107F1280527F0CAF925F0E6FFE6
:10475C003068C56107F12C0527F0C2F922F0BAFCCC
:10476C003068056207F1300527F0BAF9387026F089
:10477C00DBFA306845621AF01FFA26F0DFFE40467D
:10478C0027F0FFF91AF0BAF827F062F9012022F0AD
:10479C0071FC20F04FFA35480078022808D13248D5
:1047AC000078012804D14FF40040012106F0FEFDF1
:1047BC002B4D4FF48041287826F0B8FF2C484FF051
:1047CC00FF3100680EF006FADFF8A8904FF00008F1
:1047DC0068684FF0FF310EF0FDF93068002750F893
:1047EC002710096821B9791C092F0F46F7D3EFE779
:1047FC0027F0F7F8316851F827100C68C1F80080E1
:10480C0027F0F5F959F82720002021469047044657
:10481C0027F0E7F8316851F827100A6822430A603C
:10482C0027F0E5F9D4E70C480EA9082226F0FEFC87
:10483C0041E700BF5414002038D50200F46B00206F
:10484C00F8130020F86B0020FC6B002056D50200FA
:10485C0069D502007CD50200AF6B00206C6C002087
:10486C00380E0020A5600200CC1400201413002088
:10487C00486C0020ECD602002DE9FE4F0746086874
:10488C00C8B1D7E901480E4626F0BAFE0546D4F861
:10489C00E80003210322112838BF0122092838BF60
:1048AC000022B068024202D17068024207D028464A
:1048BC00317427F066F900242046BDE8FE8FD4F849
:1048CC00C0206AB194F8FC20002AF0D00621317483
:1048DC00D4F8C410C4F8C4604E6194F800110DE013
:1048EC0000210522C4E93066C4E93411C4E936114B
:1048FC0094F80011002908BF01223274002201290A
:10490C00726109D102204FF4E02184F8000194F87F
:10491C00FF0022F00FF9706891490138884205D8E0
:10492C00042022F057FA062022F054FA022022F03A
:10493C0051FA94F8FC0040B9D8F83C003168814237
:10494C0003D294F8000100285CD0D8F8000040F2A3
:10495C00FF118164816A41F4C0718162D4E936101F
:10496C0009B118B900E028B327F0C6F8D8F8000050
:10497C00816A41F001018162284627F002F994F81E
:10498C00FC0008B1012497E704F16C05D4F8EC1095
:10499C00284627F03FF80028F4D0D4F8C0000321B3
:1049AC000174384614F0A1F828460021002427F0A1
:1049BC0031F881E798F8040027F08BF9D8F810103B
:1049CC0026F014FCD8F8141026F010FC98F804000B
:1049DC0024F0AEFD98F8040027F07DF927F08CF850
:1049EC000020C4F8E000D4F8C0000068B0F5806F77
:1049FC0001D927F081F894F802010028B6D126F0ED
:104A0C00C2FAB3E794F8FD0018B1D4F8EC00013009
:104A1C009BD1284627F0B5F8D6F808B0BBF1000FAB
:104A2C0005D0D4F8E800092806D2012002E004F1F0
:104A3C00F80B0020019004E00421112838BF02215A
:104A4C00019175682DB1D4F8E800092805D2012729
:104A5C0007E004F1FA05002703E00427112838BF0A
:104A6C00022726F090FAD6F800A0D146BAF1000F32
:104A7C005BD0D4F8E810082914D8D8F8000001212C
:104A8C00B9F1000F25D0C90723D02A7826F09AFF58
:104A9C0018BFC0F8402100291CBF3D440121A9EBDF
:104AAC000109EDE7D8F80000112919D20121B9F15B
:104ABC00000F28D0C90726D02A8826F083FF18BFFC
:104ACC00C0F8402100291CBF3D440121A9EB01097C
:104ADC00EDE702A926F032FC02988BF800001FE0EB
:104AEC000121B9F1000F15D0C90713D02A6826F09F
:104AFC0069FF18BFC0F8402100291CBF3D440121AB
:104B0C00A9EB0109EDE702A926F018FC0298ABF815
:104B1C00000005E002A926F011FC0298CBF8000079
:104B2C000198AAF1010A8344A0E7D4F8F000D8F860
:104B3C000010D1F810210240102802D1002AF8D11F
:104B4C0001E0002AF5D0706824F048FBD4F8C010BE
:104B5C000020C4F8C400C4F8C000087412E700BFF9
:104B6C00FEFFFF0F2DE9F04F89B08A4608040DD4E3
:104B7C005FEACA7040F01D815FEA8A7000F12B81F8
:104B8C005FEA0A7000F13381002042E1A24F3878CD
:104B9C001BF066F9DFF88892A04C06464FF0000B2C
:104BAC0048F21508002E00F001813078312838D0F9
:104BBC00322849D0D32840F0B380F089404573D0D7
:104BCC00382840F0AD80CDF820B0CDE906BB30469A
:104BDC0006A922F0BFF99DF81C10052968D8307B76
:104BEC00002840F09D809DF81D00002800F0988062
:104BFC00052800F29580069825F023FF002840F048
:104C0C008F80707C87497870708808809DF81D00B3
:104C1C00214601388DF81D0006A890E82C002CC107
:104C2C007EE0B87803287BD899F82E10804825F0C0
:104C3C0008FF002874D1FF207C49607170880880BF
:104C4C00B088794908806BE06079FF2814D0002087
:104C5C0017F090FA0246B9F8701078783346CDF810
:104C6C0000B013F0C7FD6079002859D038780821BE
:104C7C00322226F0B3FF53E099F81810706820FA2E
:104C8C0001F2D2071ABF3144097A002106F1080259
:104C9C0000231B2B42D020FA03F5ED0702D0D55C84
:104CAC00A9421ED80133F4E7304623F081FC37E0EB
:104CBC00FF293DD0FE2956D199F872109DF81E009F
:104CCC00884202D860BBFF292AD11EF067FB0699E7
:104CDC0000201B2859D021FA00F2D20757D10130FD
:104CEC00F7E7B9F86E004F49334608804E48028802
:104CFC004E48018810200090002013F07BFD01200D
:104D0C00F870B87840B93C2002214EF66022B88089
:104D1C00387826F063FFB8780130B87084F805B0A5
:104D2C00304624F081FF38781BF09AF8064639E7B4
:104D3C0099F872109DF81E00884203D80028EFD114
:104D4C00FF29EDD11EF02AFB069838B1D9F82810AE
:104D5C00814203D0C9F8280024F08AFDBDF8200058
:104D6C0025F00CFDDCE7307B0028D9D170882D496B
:104D7C00802200230880707CCDE900BBCDE902BB0A
:104D8C00CDE904BB12F026F8CAE71B2000E0C0B244
:104D9C0099F818108142C3D02649087099F8070079
:104DAC00642100FB01F23878012162E78AF40040AB
:104DBC002FE020491A4C08782076E1201FF01CFFC8
:104DCC0024F056FD0020A4F87000012017F0D2F951
:104DDC008AF001001DE010488188B1B101394EF60E
:104DEC00602281800078022126F0F8FE0FE00B4C47
:104DFC00607938B12179206825F023FE10B96079EB
:104E0C00013860718AF0080003E0002181708AF09B
:104E1C00020009B0BDE8F08FE8110020486B0020BB
:104E2C00D85D0020826B0020926C0020906C0020DA
:104E3C0000F8FF07AA6C00202DE9F04F85B08846DA
:104E4C00080418D4A9480078012802D85FEAC87170
:104E5C0055D15FEA88714CD4022807D1A448007858
:104E6C00012803D15FEA487000F188805FEA08707E
:104E7C0057D400202BE1DFF85CA29AF800001AF05E
:104E8C00EFFF002800F021810546807FC8B9688CAF
:104E9C00132816D190486E8800F11C090020494651
:104EAC004F46002818BF071D086850B1014631F85D
:104EBC00042BB242F4D144683C6026F02CFF20460F
:104ECC00F3E7A87A05F1020B022840F0E480DFF842
:104EDC00089295F83170BBF8006009F11C0000686D
:104EEC00A0B10188B14202D18178B94242D00430DC
:104EFC00F5E779480121017088F00200E7E0764877
:104F0C00406900B1804788F00100E0E0D9F81C400E
:104F1C00002C57D001206168002955D001300C4677
:104F2C00F9E77048DFF8B091807BD9F81C60000776
:104F3C0060D426F0C2FE044626F0BDFE6A4A6043E9
:104F4C004FF47A71B0FBF1F0D9F818101288411AAD
:104F5C0091427AD3B1FBF2FB0BFB02F2511A0844DB
:104F6C005E49C9F818001FFA8BF00978884288BF8F
:104F7C008B4641E059490978C170A3E05E495D4810
:104F8C0000224FF6FE7300240978023079B130F814
:104F9C00025C9D4208D04588013D45802D0406BF2A
:104FAC00027020F8023C012401390630EEE734B1DE
:104FBC00484804214FF4FA72007826F00FFE88F06E
:104FCC00040084E000240020454980B2098888420E
:104FDC0061D2082026F0A1FE00285CD000210680BA
:104FEC00877041603D490978C170D9F81C1079B3BC
:104FFC0060603FE04FF0010B00205FFA8BF44FF044
:10500C00000A071D002808BF09F11C0796B1F078AB
:10501C00C0FA5BF1A042F17006D8756830463D606D
:10502C0026F079FE2E46F1E7716830460AF1010A46
:10503C000E46E6E75FEA0A4007D100200821C9F8CE
:10504C001800244800781AF0DDFE88F008003EE0D5
:10505C00C9F81C002348807B00070BD426F02DFEDA
:10506C00044626F028FE60434FF47A71B0FBF1F051
:10507C00C9F818001B48807B00070CD59AF8000073
:10508C0008211FF06FFC30B91748082102889AF8E4
:10509C00000026F0A0FD2878022810D0012811D19C
:1050AC00297EAA89EB7C05F11C006C696E7E8DE86B
:1050BC005A0005F11003594605F042FF02E028465C
:1050CC0016F0D4FC284624F0AFFD88F4004005B05F
:1050DC00BDE8F08FA46C00202C110020AC14002033
:1050EC0074140020D85D00207814002014130020C4
:1050FC00CC1400204C5E00208B1400202DE9F04FC6
:10510C0087B0851C8346284626F032FD01AC064646
:10511C001821204625F0EAFE9BF801A004F10B00B3
:10512C002946009526F0A2FD6FF001009BF80A10AD
:10513C0002240122ADF8180000208DF81A408DF8D9
:10514C000C0001F00800C1F3C007890782EAD00502
:10515C0007D4002808BF0124B946A846002700251B
:10516C0007E004244FF000094FF00008002808BFA6
:10517C0003248548007850EA0A000BD0834890F845
:10518C002600082809D125F089FF00285AD0BAF149
:10519C00010F57D14FF0C30901E04FF0C2090025B0
:1051AC00BAF1000F10D07F48007890B9BAF1010F16
:1051BC000FD1002E55D00020214601228DF81A0067
:1051CC0001A815F0AFFD0AE001A81EF024FD86B978
:1051DC001CE001A82146524615F0A4FDB6B1717928
:1051EC00BAF1020F41F04002727104BF41F060014C
:1051FC0071719BF80A10490603D5717941F0800151
:10520C007171B17900240131B17100E00124B0FA5F
:10521C0080F149090D422CD107D1002D18BF8146D0
:10522C0041F2010049461BF0E4FC14B900981BF054
:10523C006BF8BDF818004FF6FE71884218BF26F0C7
:10524C007EFD16E0DEB33279A24218BFBAF1020F2E
:10525C0012D1D01EC0B201281BD857EA050020D1AC
:10526C002AE00220214601228DF81A0001A815F02F
:10527C0059FD07B0BDE8F08F4FF000090099534677
:10528C008DF81A903088ADF8180026F02EFD012507
:10529C0086E7501EC0B201280ED849EA0800012842
:1052AC0007D1308823F0B0FA50B93088ADF8180027
:1052BC0008E0308826F043FD00981BF025F8002606
:1052CC00BDF818004FF6FE7188421ED123F058F835
:1052DC0010B1BDF8180011E0BAF1000F04D02C4D3C
:1052EC00288823F091FA30B19BF80A0000F00200F4
:1052FC0021F0A0FD00E02888ADF818004FF6FE71F3
:10530C00884202D14FF0C70949E79BF80A2000995F
:10531C00534626F0EAFC10B14FF001093FE71D4857
:10532C00016811B1BDF818008847BDF81800009944
:10533C00224606F0F5F80646174818490A68007820
:10534C004FF4803126F04AFC01211548C17096B10A
:10535C00AAF10100C0B2012807D81020BAF1020F3F
:10536C0008BF08207179084370714FF000090125BE
:10537C008DF81A9014E74FF6FE7000254FF00109D6
:10538C000026ADF818000BE710120020D85D0020A5
:10539C006C14002098100020A76C00205CDB02002D
:1053AC00E4120020141300202DE9F04F87B00024E4
:1053BC000293002A00F03D81074603A892460E4650
:1053CC004FF0200B10300190504610F8011B25298E
:1053DC000CD0002900F02A81022EC0F0D980013EA9
:1053EC00002F00F0D48007F8011BD1E09AF80100DF
:1053FC002D2806D19AF802000AF103034FF0010C94
:10540C0003E00AF102034FF0000C30280CBF13F834
:10541C00011B01462A2920D1029D2A68111D2960F1
:10542C00D2F8009013F8011BB9F1FF3FDCBFC9F1B2
:10543C0000094FF0010C2E291ED11A4612F8011B3F
:10544C002A291CD1029D2A68111D29609D1C1268F5
:10545C0059782B4622EAE27821E04FF00009A1F1BD
:10546C003002092AE7D809EB890201EB4201A1F1CC
:10547C00300913F8011BF2E74FF0FF380FE04FF043
:10548C000008A1F13003092B08D808EB880301EBC5
:10549C004301A1F1300812F8011BF2E71346302842
:1054AC004FF0000241F0200008BF4A466C2808BFAC
:1054BC0013F8011B9A46692901D064290CD1029B6F
:1054CC001868011D19609045C8BF4246DDF804807C
:1054DC0001686FF009031EE075290AD0A1F16F0075
:1054EC00092858D8DFE800F005695F5F835F5F5FCC
:1054FC005F05029D2868031D2B6090454FF0080343
:10550C00C8BF4246782908BF1023752908BF0A2353
:10551C00DDF8048001684046654617F025FFAC466F
:10552C000546A8EB0001A9EB0100BCF1000F0DD161
:10553C0009E0022E05D3013E17B107F801BB00E0CC
:10554C000027013801340128F3DA01380A465AB130
:10555C00022E06D3013E1FB12B7807F8013B00E069
:10556C000027013A0135F2E70C44BCF1000F3FF47F
:10557C002BAF0128FFF628AF022E05D3013E17B141
:10558C0007F801BB00E0002701380134F1E70027E0
:10559C000134824618E7632905D1029A1068011D6F
:1055AC001160006804E0AAF10100022E3AD30078E1
:1055BC008DF80C00012103ADB5E7029ADDF80480EB
:1055CC001023CDF800C01068011D1160109908223D
:1055DC0000290168404617F0C7FE05464FF0400011
:1055EC00DDF800C005F8010DA8EB05019BE7029A58
:1055FC00CDF800C01068011D1160109905680F48A6
:10560C000029002D08BF0546284625F0ACFF0146B1
:10561C00804538BF414618F1010208BF0146DDF84C
:10562C0000C080E7002103AD82467CE70FB100206B
:10563C003870204607B0BDE8F08F00BFC0C902002B
:10564C002DE9F04F8DB00646806A447874B18D49CF
:10565C0009788C4280F012818B49023022462AB1A3
:10566C0030F8023B013A21F8023BF8E78748C18A3F
:10567C00708988422FD183480078A04240F2FE8086
:10568C00B589814A2146284624F0DCFC284618F0CE
:10569C00DDFB064682480778BE4204D14FF6FE7009
:1056AC0018F0D4FB0646BE4280F0E880DFF8F481A7
:1056BC0008EBC6094F4657F8040F08B126F02BFB30
:1056CC00002C00F0B180600026F027FB0028386029
:1056DC0040F0AC80D2E0B27C002A00F0CF806A4F60
:1056EC000025AC4205D037F815208A4203D001358D
:1056FC00F7E7A04600E0A846002115F013FC0028AF
:10570C0000F0AD8081464079012840F0A88099F8DE
:10571C00060010F0180F00F0A280B9F80210204615
:10572C0024F0B6FDA54202D3002800F0988058481A
:10573C00CDE90498B6F80C904FF6FE7A00780890F4
:10574C00544800780A90002006960B90524811306D
:10575C00099052480430079000200C90DDE909565E
:10576C004FF0000BF6B135F8117C574518BF4F457B
:10577C0002D1013E1C35F5E72046394624F088FD60
:10578C000028F6D1287801380528F2D80C980BF1AE
:10579C00010BC007EDD00B985FFA8BF1C0B28142C0
:1057AC00E7D356E0DDE907862EB338F8047C57457D
:1057BC0018BF4F4503D1013E08F12408F4E72046F9
:1057CC00394624F065FD0028F5D198F8050001381C
:1057DC000528F0D898F8000001380228EBD30C9873
:1057EC000BF1010BC007E6D00B985FFA8BF1C0B23E
:1057FC008142E0D32DE05FEA0B6028D00B980006C5
:10580C0025D101205FFA8BF50B90012D4FF0010093
:10581C000C90A3D026F0EAF8C0B2B0FBF5F101FB76
:10582C0015000B90012098E7002038601E4989F87C
:10583C000140A9F80250097808F83610F4B1E8B123
:10584C00114962000DB0BDE8F04F25F0EFBC4FF6EA
:10585C00FE770498069EDDF8148047800A4FB37CCF
:10586C00F47CB269B1890125581EB07470895FFA55
:10587C0088F68DE8D000039511F098FD0DB0BDE8C9
:10588C00F08F00BF82DB0200146A0020D85D00207C
:10589C008DDB02007BDB0200704E0020D844002020
:1058AC0081DB0200845F0020C51400202DE9F04F3D
:1058BC0087B005462C200E4626F02FFA002844D03F
:1058CC00778B044625F0CCFE0021E1840121874230
:1058DC0008BF02212170707BA0703169081A6060CA
:1058EC0020461AF0EBFA3178834F01F00301387B34
:1058FC00012908BF05206070C0B225F0DFFC4FF015
:10590C00FF316077A182217F326908440A44317DDE
:10591C003261081A3075E070A069013017D0207C14
:10592C00032816D8DFE800F00217020906202146EA
:10593C006082284618F090FC10B304202146608247
:10594C00284608F0D7F805461BE01025CFE0A32524
:10595C0017E0A12515E00020B3256082F87A80B904
:10596C0097F8410001280CD1A07D4FF6FF761BF073
:10597C00C5FE0025A082B04208BF6FF05E0500E0B6
:10598C0000252078022807D104F1080625F022F919
:10599C000146304626F06AF9280640F0A580574F9C
:1059AC003878013801281AD894F8260010B994F8E0
:1059BC002700A0B1A078E178227F0844104404307D
:1059CC0026F0ABF958B1A178E2780646207F114455
:1059DC0008446168021D304625F028FC00E00026D2
:1059EC0020460FF073F905463878012802D12DB9FD
:1059FC00002575E0022873D1002D71D0002E73D0D4
:105A0C000DF1080800274FF0010B4FF4D00908F1F5
:105A1C00080A94F8260018B994F8270000285FD0DB
:105A2C00A178E278207F114408443146021D606859
:105A3C0025F0FCFB94F8260020B184F82670C4F8FD
:105A4C00129007E094F8270020B12D4884F82770B5
:105A5C00C4F8120020460FF039F910B100210546A8
:105A6C0039E04046142125F041FA608A8DF819B0CE
:105A7C00F0B9A08A40F20311884216D0682817D1D9
:105A8C006068C17B052929D12A30FF21082224F026
:105A9C00E3FF18B34FF0FF306946CDE90000194819
:105AAC00006826F0E3F8FC2000E0FF208DF81800D9
:105ABC00504669460022002514F0D6FC01469DF89C
:105ACC00000038B104201422434622F071FA03215D
